{
    "_format": "hh-sol-artifact-1",
    "contractName": "Transactions",
    "sourceName": "contracts/Transactions.sol",
    "abi": [
        {
            "anonymous": false,
            "inputs": [
                {
                    "indexed": false,
                    "internalType": "address",
                    "name": "from",
                    "type": "address"
                },
                {
                    "indexed": false,
                    "internalType": "address",
                    "name": "receiver",
                    "type": "address"
                },
                {
                    "indexed": false,
                    "internalType": "uint256",
                    "name": "amount",
                    "type": "uint256"
                },
                {
                    "indexed": false,
                    "internalType": "string",
                    "name": "title",
                    "type": "string"
                },
                {
                    "indexed": false,
                    "internalType": "uint256",
                    "name": "timestamp",
                    "type": "uint256"
                },
                {
                    "indexed": false,
                    "internalType": "string",
                    "name": "productUID",
                    "type": "string"
                }
            ],
            "name": "Transfer",
            "type": "event"
        },
        {
            "inputs": [
                {
                    "internalType": "address payable",
                    "name": "receiver",
                    "type": "address"
                },
                {
                    "internalType": "uint256",
                    "name": "amount",
                    "type": "uint256"
                },
                {
                    "internalType": "string",
                    "name": "title",
                    "type": "string"
                },
                {
                    "internalType": "string",
                    "name": "productUID",
                    "type": "string"
                }
            ],
            "name": "AddToBlockchain",
            "outputs": [],
            "stateMutability": "nonpayable",
            "type": "function"
        },
        {
            "inputs": [],
            "name": "getAllTransactions",
            "outputs": [
                {
                    "components": [
                        {
                            "internalType": "address",
                            "name": "sender",
                            "type": "address"
                        },
                        {
                            "internalType": "address",
                            "name": "receiver",
                            "type": "address"
                        },
                        {
                            "internalType": "uint256",
                            "name": "amount",
                            "type": "uint256"
                        },
                        {
                            "internalType": "string",
                            "name": "title",
                            "type": "string"
                        },
                        {
                            "internalType": "uint256",
                            "name": "timestamp",
                            "type": "uint256"
                        },
                        {
                            "internalType": "string",
                            "name": "productUID",
                            "type": "string"
                        }
                    ],
                    "internalType": "struct Transactions.TransactionStruct[]",
                    "name": "",
                    "type": "tuple[]"
                }
            ],
            "stateMutability": "view",
            "type": "function"
        },
        {
            "inputs": [],
            "name": "getTransactionCount",
            "outputs": [
                {
                    "internalType": "uint256",
                    "name": "",
                    "type": "uint256"
                }
            ],
            "stateMutability": "view",
            "type": "function"
        },
        {
            "inputs": [],
            "name": "transactionCount",
            "outputs": [
                {
                    "internalType": "uint256",
                    "name": "",
                    "type": "uint256"
                }
            ],
            "stateMutability": "view",
            "type": "function"
        }
    ],
    "bytecode": "0x608060405234801561001057600080fd5b50610cef806100206000396000f3fe608060405234801561001057600080fd5b506004361061004c5760003560e01c806327506f53146100515780632e7700f01461006f578063a1ec38a91461008d578063b77bf600146100a9575b600080fd5b6100596100c7565b60405161006691906106c6565b60405180910390f35b61007761030a565b60405161008491906106f7565b60405180910390f35b6100a760048036038101906100a291906108c5565b610313565b005b6100b1610484565b6040516100be91906106f7565b60405180910390f35b60606001805480602002602001604051908101604052809291908181526020016000905b8282101561030157838290600052602060002090600602016040518060c00160405290816000820160009054906101000a900473ffffffffffffffffffffffffffffffffffffffff1673ffffffffffffffffffffffffffffffffffffffff1673ffffffffffffffffffffffffffffffffffffffff1681526020016001820160009054906101000a900473ffffffffffffffffffffffffffffffffffffffff1673ffffffffffffffffffffffffffffffffffffffff1673ffffffffffffffffffffffffffffffffffffffff168152602001600282015481526020016003820180546101d490610993565b80601f016020809104026020016040519081016040528092919081815260200182805461020090610993565b801561024d5780601f106102225761010080835404028352916020019161024d565b820191906000526020600020905b81548152906001019060200180831161023057829003601f168201915b505050505081526020016004820154815260200160058201805461027090610993565b80601f016020809104026020016040519081016040528092919081815260200182805461029c90610993565b80156102e95780601f106102be576101008083540402835291602001916102e9565b820191906000526020600020905b8154815290600101906020018083116102cc57829003601f168201915b505050505081525050815260200190600101906100eb565b50505050905090565b60008054905090565b600080815480929190610325906109f3565b919050555060016040518060c001604052803373ffffffffffffffffffffffffffffffffffffffff1681526020018673ffffffffffffffffffffffffffffffffffffffff16815260200185815260200184815260200142815260200183815250908060018154018082558091505060019003906000526020600020906006020160009091909190915060008201518160000160006101000a81548173ffffffffffffffffffffffffffffffffffffffff021916908373ffffffffffffffffffffffffffffffffffffffff16021790555060208201518160010160006101000a81548173ffffffffffffffffffffffffffffffffffffffff021916908373ffffffffffffffffffffffffffffffffffffffff16021790555060408201518160020155606082015181600301908161045b9190610be7565b506080820151816004015560a082015181600501908161047b9190610be7565b50505050505050565b60005481565b600081519050919050565b600082825260208201905092915050565b6000819050602082019050919050565b600073ffffffffffffffffffffffffffffffffffffffff82169050919050565b60006104e1826104b6565b9050919050565b6104f1816104d6565b82525050565b6000819050919050565b61050a816104f7565b82525050565b600081519050919050565b600082825260208201905092915050565b60005b8381101561054a57808201518184015260208101905061052f565b60008484015250505050565b6000601f19601f8301169050919050565b600061057282610510565b61057c818561051b565b935061058c81856020860161052c565b61059581610556565b840191505092915050565b600060c0830160008301516105b860008601826104e8565b5060208301516105cb60208601826104e8565b5060408301516105de6040860182610501565b50606083015184820360608601526105f68282610567565b915050608083015161060b6080860182610501565b5060a083015184820360a08601526106238282610567565b9150508091505092915050565b600061063c83836105a0565b905092915050565b6000602082019050919050565b600061065c8261048a565b6106668185610495565b935083602082028501610678856104a6565b8060005b858110156106b457848403895281516106958582610630565b94506106a083610644565b925060208a0199505060018101905061067c565b50829750879550505050505092915050565b600060208201905081810360008301526106e08184610651565b905092915050565b6106f1816104f7565b82525050565b600060208201905061070c60008301846106e8565b92915050565b6000604051905090565b600080fd5b600080fd5b6000610731826104b6565b9050919050565b61074181610726565b811461074c57600080fd5b50565b60008135905061075e81610738565b92915050565b61076d816104f7565b811461077857600080fd5b50565b60008135905061078a81610764565b92915050565b600080fd5b600080fd5b7f4e487b7100000000000000000000000000000000000000000000000000000000600052604160045260246000fd5b6107d282610556565b810181811067ffffffffffffffff821117156107f1576107f061079a565b5b80604052505050565b6000610804610712565b905061081082826107c9565b919050565b600067ffffffffffffffff8211156108305761082f61079a565b5b61083982610556565b9050602081019050919050565b82818337600083830152505050565b600061086861086384610815565b6107fa565b90508281526020810184848401111561088457610883610795565b5b61088f848285610846565b509392505050565b600082601f8301126108ac576108ab610790565b5b81356108bc848260208601610855565b91505092915050565b600080600080608085870312156108df576108de61071c565b5b60006108ed8782880161074f565b94505060206108fe8782880161077b565b935050604085013567ffffffffffffffff81111561091f5761091e610721565b5b61092b87828801610897565b925050606085013567ffffffffffffffff81111561094c5761094b610721565b5b61095887828801610897565b91505092959194509250565b7f4e487b7100000000000000000000000000000000000000000000000000000000600052602260045260246000fd5b600060028204905060018216806109ab57607f821691505b6020821081036109be576109bd610964565b5b50919050565b7f4e487b7100000000000000000000000000000000000000000000000000000000600052601160045260246000fd5b60006109fe826104f7565b91507fffffffffffffffffffffffffffffffffffffffffffffffffffffffffffffffff8203610a3057610a2f6109c4565b5b600182019050919050565b60008190508160005260206000209050919050565b60006020601f8301049050919050565b600082821b905092915050565b600060088302610a9d7fffffffffffffffffffffffffffffffffffffffffffffffffffffffffffffffff82610a60565b610aa78683610a60565b95508019841693508086168417925050509392505050565b6000819050919050565b6000610ae4610adf610ada846104f7565b610abf565b6104f7565b9050919050565b6000819050919050565b610afe83610ac9565b610b12610b0a82610aeb565b848454610a6d565b825550505050565b600090565b610b27610b1a565b610b32818484610af5565b505050565b5b81811015610b5657610b4b600082610b1f565b600181019050610b38565b5050565b601f821115610b9b57610b6c81610a3b565b610b7584610a50565b81016020851015610b84578190505b610b98610b9085610a50565b830182610b37565b50505b505050565b600082821c905092915050565b6000610bbe60001984600802610ba0565b1980831691505092915050565b6000610bd78383610bad565b9150826002028217905092915050565b610bf082610510565b67ffffffffffffffff811115610c0957610c0861079a565b5b610c138254610993565b610c1e828285610b5a565b600060209050601f831160018114610c515760008415610c3f578287015190505b610c498582610bcb565b865550610cb1565b601f198416610c5f86610a3b565b60005b82811015610c8757848901518255600182019150602085019450602081019050610c62565b86831015610ca45784890151610ca0601f891682610bad565b8355505b6001600288020188555050505b50505050505056fea2646970667358221220d3882c1d42615f5583f2886aaf72921a8f3aaedb8876fd1ca5a6a0026525697c64736f6c63430008110033",
    "linkReferences": {},
    "deployedLinkReferences": {}
}